:020000040000FA
:100000000C9462000C948A000C948A000C948A0070
:100010000C948A000C948A000C948A000C948A0038
:100020000C948A000C948A000C948A000C948A0028
:100030000C948A000C948A000C948A000C948A0018
:100040000C94B7030C948A000C9427040C940104BC
:100050000C948A000C948A000C948A000C948A00F8
:100060000C948A000C948A000000000024002700F1
:100070002A000000000023002600290000000000E4
:10008000250028002B0000000008000201000003EA
:10009000040700000000000000000404040404043D
:1000A0000404020202020202030303030303010227
:1000B00004081020408001020408102001020408F6
:1000C0001020590411241FBECFEFD8E0DEBFCDBFF2
:1000D00011E0A0E0B1E0E0EBFEE002C005900D927F
:1000E000AE35B107D9F722E0AEE5B1E001C01D920F
:1000F000A731B207E1F710E0C2E6D0E004C02197D3
:10010000FE010E945007C136D107C9F70E94A6041C
:100110000C9456070C94000090E0FC01EA57FF4F46
:100120002491FC01E255FF4F3491FC01E656FF4F4C
:10013000E491EE23B9F0222339F02330F1F098F462
:10014000213009F1223019F1F0E0EE0FFF1FE458E1
:10015000FF4FA591B4918FB7F894EC9130953E2361
:100160003C938FBF08952730A9F02830C9F0243080
:1001700059F7809180008F7D03C0809180008F7738
:1001800080938000E1CF84B58F7784BDDDCF84B5C7
:100190008F7DFBCF8091B0008F778093B000D4CF5C
:1001A0008091B0008F7DF9CFCF92DF92EF92FF92D6
:1001B000CF93DF93B0910B02A0E08111AB2F809120
:1001C0000C0290E0880F991FAC014E585F4FC09011
:1001D0001102D0901202E0901302F090140230E06D
:1001E00020E0FA01C591D491E881B90190E080E066
:1001F000EB23EA130AC02F5F3F4F6C157D058E0578
:100200009F0578F36FEF7FEFCB01DF91CF91FF90E8
:10021000EF90DF90CF900895CF93DF9390E0FC01B3
:10022000E255FF4F249186569F4FFC01849188230D
:10023000D1F090E0880F991FFC01E859FF4FA5917C
:10024000B491FC01E458FF4FC591D491623071F430
:100250009FB7F8943C91822F809583238C93E881FB
:100260002E2B28839FBFDF91CF9108958FB7F894ED
:10027000EC912E2B2C938FBFF6CF3FB7F894809143
:100280005F0190916001A0916101B091620126B57A
:10029000A89B05C02F3F19F00196A11DB11D3FBFBE
:1002A000BA2FA92F982F8827BC01CD01620F711D8D
:1002B000811D911D42E0660F771F881F991F4A9587
:1002C000D1F708958F929F92AF92BF92CF92DF9213
:1002D000EF92FF924B015C010E943D016B017C019A
:1002E0000E943D016C197D098E099F09683E73408B
:1002F00081059105A8F321E0821A9108A108B108AF
:1003000088EEC80E83E0D81EE11CF11C8114910414
:10031000A104B10429F7FF90EF90DF90CF90BF9038
:10032000AF909F908F900895CF92DF92EF92FF92BF
:100330000F931F93CF93DF93CDB7DEB7C054D14057
:100340000FB6F894DEBF0FBECDBF2FB7F8948091E3
:10035000630190916401A0916501B09166012FBF86
:1003600040910D0250910E0260910F0270911002A7
:100370008C019D01041B150B260B370BB901A8013D
:10038000403D57406105710590F480911502C05CB5
:10039000DE4F0FB6F894DEBF0FBECDBFDF91CF9119
:1003A0001F910F91FF90EF90DF90CF900895809371
:1003B0000D0290930E02A0930F02B09310021092C0
:1003C0000802109207021092060210920502109283
:1003D000040262E0809109020E940C0161E070E079
:1003E00080E090E00E94620161E0809109020E9439
:1003F0000C01809109020E948C0080910A028551B3
:10040000823020F58BE291E10197F1F762E0809173
:1004100009020E940C018091160290E08230910541
:1004200038F0880F991F880F991F05970197F1F7EA
:10043000F89480E00E94D4006F3F7F4F8F4F9F4F12
:1004400061F410921502789480E0A1CF64E170E02D
:1004500080E090E00E946201D9CF81E00E94D40048
:100460006F3F7F4F8F4F9F4F61F38E010F5F1F4F85
:100470006E018FEBC81A8EEFD80A780180E00E94D7
:10048000D400F701608371838283938381E00E94AB
:10049000D400F7016483758386839783F8E0EF0EB9
:1004A000F11CEC14FD0451F7789430E020E0F801E1
:1004B000C080D180E280F38044815581668177815C
:1004C000FFEFCF16DF06EF06FF0631F04F3F8FEF4D
:1004D00058076807780719F410921502B5CFF9018B
:1004E00083E0F595E7958A95E1F7EC5FFD4F808114
:1004F000880FC416D506E606F70610F180832F5F35
:100500003F4F085F1F4F2832310589F6409108029E
:100510002091040280910502280F3327331F809118
:100520000602280F311D80910702820F932F911D23
:1005300099274817190681F681E08093150227CF85
:100540008160DCCFAF92BF92CF92DF92EF92FF92A9
:100550000F931F93CF93DF936C017B018B01040FEB
:10056000151FEB015E01AE18BF08C017D10759F087
:100570006991D601ED91FC910190F081E02DC601C9
:100580000995892B79F7C501DF91CF911F910F91C3
:10059000FF90EF90DF90CF90BF90AF900895FC0157
:1005A000538D448D252F30E0842F90E0821B930BD8
:1005B000541710F0CF96089501970895FC01918D7E
:1005C000828D981761F0A28DAE0FBF2FB11D5D9681
:1005D0008C91928D9F5F9F73928F90E008958FEF23
:1005E0009FEF0895FC01918D828D981731F0828DD7
:1005F000E80FF11D858D90E008958FEF9FEF08952E
:10060000FC01918D228D892F90E0805C9F4F821B91
:1006100091098F739927089587E691E00E9400035E
:1006200021E0892B09F420E0822F089580E090E0FA
:10063000892B29F00E940C0381110C94000008956D
:10064000FC01A48DA80FB92FB11DA35ABF4F2C9147
:10065000848D90E001968F739927848FA689B7893E
:100660002C93A089B1898C91837080648C93938D35
:10067000848D981306C00288F389E02D80818F7DD8
:1006800080830895EF92FF920F931F93CF93DF9390
:10069000EC0181E0888F9B8D8C8D98131AC0E889BE
:1006A000F989808185FF15C09FB7F894EE89FF898D
:1006B0006083E889F98980818370806480839FBF2B
:1006C00081E090E0DF91CF911F910F91FF90EF902B
:1006D0000895F62E0B8D10E00F5F1F4F0F7311273B
:1006E000E02E8C8D8E110CC00FB607FCFACFE88976
:1006F000F989808185FFF5CFCE010E942003F1CFDB
:10070000EB8DEC0FFD2FF11DE35AFF4FF0829FB7E9
:10071000F8940B8FEA89FB8980818062CFCFCF93D9
:10072000DF93EC01888D8823B9F0AA89BB89E88919
:10073000F9898C9185FD03C0808186FD0DC00FB6BF
:1007400007FCF7CF8C9185FFF2CF808185FFEDCF3D
:10075000CE010E942003E9CFDF91CF91089542E0BE
:1007600050E062E171E087E691E00C94A2021F92F2
:100770000F920FB60F9211242F933F938F939F9355
:10078000AF93BF938091630190916401A091650143
:10079000B091660130915E0123E0230F2D3758F5AB
:1007A0000196A11DB11D20935E018093630190937A
:1007B0006401A0936501B093660180915F019091FF
:1007C0006001A0916101B09162010196A11DB11D6E
:1007D00080935F0190936001A0936101B0936201E7
:1007E000BF91AF919F918F913F912F910F900FBE2D
:1007F0000F901F90189526E8230F0296A11DB11D9A
:10080000D2CF1F920F920FB60F9211242F933F93C6
:100810004F935F936F937F938F939F93AF93BF9308
:10082000EF93FF9387E691E00E942003FF91EF9101
:10083000BF91AF919F918F917F916F915F914F91F8
:100840003F912F910F900FBE0F901F9018951F9200
:100850000F920FB60F9211242F938F939F93EF93C4
:10086000FF93E0917701F09178018081E0917D0123
:10087000F0917E0182FD1BC09081809180018F5F8D
:100880008F7320918101821741F0E0918001F0E0A7
:10089000E959FE4F958F80938001FF91EF919F91D1
:1008A0008F912F910F900FBE0F901F901895808100
:1008B000F4CFE7E6F1E01382128288EE93E0A0E045
:1008C000B0E084839583A683B78384E091E091832D
:1008D000808385EC90E09587848784EC90E097870F
:1008E000868780EC90E0918B808B81EC90E0938BFD
:1008F000828B82EC90E0958B848B86EC90E0978BDA
:10090000868B118E128E138E148EA4E0B2E088E0D6
:1009100015968C9315978BE016968C931697E6EBAD
:10092000F0E0E4911796EC931797E2EAF0E0E49197
:100930001896EC93189740E85EE360E070E01D962F
:100940004D935D936D937C9350970895789484B5FF
:10095000826084BD84B5816084BD85B5826085BDBB
:1009600085B5816085BD80916E00816080936E0049
:10097000109281008091810082608093810080913B
:1009800081008160809381008091800081608093EC
:1009900080008091B10084608093B1008091B000AC
:1009A00081608093B00080917A00846080937A00A7
:1009B00080917A00826080937A0080917A008160D1
:1009C00080937A0080917A00806880937A001092F8
:1009D000C10061E089E00E940C0161E08DE00E94AD
:1009E0000C0189E00E948C008DE00E948C00E09157
:1009F0007701F091780182E08083E0917301F091BA
:100A000074011082E0917501F09176018FEC808382
:100A100010927F01E0917B01F0917C0186E0808360
:100A2000E0917901F0917A01808180618083E09189
:100A30007901F0917A01808188608083E091790169
:100A4000F0917A01808180688083E0917901F09152
:100A50007A0180818F7D808362E0809109020E940B
:100A60000C012FB7F8948091630190916401A091DB
:100A70006501B09166012FBF805D9740A109B10962
:100A800080930D0290930E02A0930F02B093100278
:100A900087E38093160247E250E065E171E087E664
:100AA00091E00E94A2020E94AF0360ED77E080E037
:100AB00090E00E946201C0E0D0E00E94940188238F
:100AC00089F180910A028B3030F08D3048F08551E9
:100AD000823008F442C060E070E080EC9FE71CC008
:100AE0006091050270E090E080E00E942E062DECFF
:100AF0003CEC4CEC5DE30E94BA066B017C0160911A
:100B0000040270E090E080E00E942E069B01AC01A0
:100B1000C701B6010E94C0059B01AC010E942707D6
:100B2000882381F04FE150E06DE371E087E691E0CA
:100B30000E94A2020E94AF0360ED77E080E090E0A7
:100B40000E946201209709F4B8CF0E940C03882309
:100B500009F4B3CF0E940000B0CF609104027091FD
:100B6000050276276727762790E080E00E942C0612
:100B70002DEC3CEC4CEC5DE30E94BA06CDCF505816
:100B8000BB27AA270E94D7050C9480060E947206F4
:100B900038F00E94790620F039F49F3F19F426F4CA
:100BA0000C946F060EF4E095E7FB0C946906E92FB0
:100BB0000E94910658F3BA176207730784079507D6
:100BC00020F079F4A6F50C94B3060EF4E0950B2E04
:100BD000BA2FA02D0B01B90190010C01CA01A0018F
:100BE0001124FF27591B99F0593F50F4503E68F1EA
:100BF0001A16F040A22F232F342F4427585FF3CF2B
:100C0000469537952795A795F0405395C9F77EF4FB
:100C10001F16BA0B620B730B840BBAF09150A1F044
:100C2000FF0FBB1F661F771F881FC2F70EC0BA0FCA
:100C3000621F731F841F48F4879577956795B79552
:100C4000F7959E3F08F0B0CF9395880F08F099274D
:100C5000EE0F979587950895E89409C097FB3EF4A9
:100C600090958095709561957F4F8F4F9F4F9923F9
:100C7000A9F0F92F96E9BB279395F6958795779577
:100C80006795B795F111F8CFFAF4BB0F11F460FF37
:100C90001BC06F5F7F4F8F4F9F4F16C0882311F08F
:100CA00096E911C0772321F09EE8872F762F05C0A3
:100CB000662371F096E8862F70E060E02AF09A953E
:100CC000660F771F881FDAF7880F9695879597F933
:100CD000089597F99F6780E870E060E008959FEFBE
:100CE00080EC089500240A941616170618060906C3
:100CF000089500240A941216130614060506089592
:100D0000092E0394000C11F4882352F0BB0F40F419
:100D1000BF2B11F460FF04C06F5F7F4F8F4F9F4F59
:100D2000089557FD9058440F551F59F05F3F71F0DB
:100D30004795880F97FB991F61F09F3F79F0879542
:100D40000895121613061406551FF2CF4695F1DFCB
:100D500008C0161617061806991FF1CF869571055B
:100D6000610508940895E894BB2766277727CB018F
:100D700097F908950E94CD060C9480060E94720691
:100D800038F00E94790620F0952311F00C94690642
:100D90000C946F0611240C94B4060E94910670F313
:100DA000959FC1F3950F50E0551F629FF001729F10
:100DB000BB27F00DB11D639FAA27F00DB11DAA1F1F
:100DC000649F6627B00DA11D661F829F2227B00D6C
:100DD000A11D621F739FB00DA11D621F839FA00DF7
:100DE000611D221F749F3327A00D611D231F849F47
:100DF000600D211D822F762F6A2F11249F5750409E
:100E00009AF0F1F088234AF0EE0FFF1FBB1F661F18
:100E1000771F881F91505040A9F79E3F510580F0E1
:100E20000C9469060C94B4065F3FE4F3983ED4F347
:100E3000869577956795B795F795E7959F5FC1F785
:100E4000FE2B880F911D9695879597F908950E941E
:100E50002C07880B990B0895990F0008550FAA0BC2
:100E6000E0E8FEEF16161706E807F907C0F01216BD
:100E70001306E407F50798F0621B730B840B950BC0
:100E800039F40A2661F0232B242B252B21F4089515
:100E90000A2609F4A140A6958FEF811D811D0895B2
:100EA000EE0FFF1F0590F491E02D0994F894FFCF09
:100EB000000000004203A202CF028F030003DE0203
:100EC000F2020D0A0048756D696469747920436FF8
:100ED0006E74726F6C2053797374656D20496E69FE
:100EE0007469616C697A696E672E2E2E004661699D
:100EF0006C656420746F20726561642066726F6D2A
:0E0F0000204448542073656E736F7221000008
:107E0000112484B714BE81FFF0D085E080938100F7
:107E100082E08093C00088E18093C10086E0809377
:107E2000C20080E18093C4008EE0C9D0259A86E02C
:107E300020E33CEF91E0309385002093840096BBD3
:107E4000B09BFECF1D9AA8958150A9F7CC24DD24C4
:107E500088248394B5E0AB2EA1E19A2EF3E0BF2EE7
:107E6000A2D0813461F49FD0082FAFD0023811F036
:107E7000013811F484E001C083E08DD089C08234E0
:107E800011F484E103C0853419F485E0A6D080C0E4
:107E9000853579F488D0E82EFF2485D0082F10E0AE
:107EA000102F00270E291F29000F111F8ED06801E7
:107EB0006FC0863521F484E090D080E0DECF843638
:107EC00009F040C070D06FD0082F6DD080E0C81688
:107ED00080E7D80618F4F601B7BEE895C0E0D1E017
:107EE00062D089930C17E1F7F0E0CF16F0E7DF06D8
:107EF00018F0F601B7BEE89568D007B600FCFDCFD4
:107F0000A601A0E0B1E02C9130E011968C91119780
:107F100090E0982F8827822B932B1296FA010C0160
:107F200087BEE89511244E5F5F4FF1E0A038BF0790
:107F300051F7F601A7BEE89507B600FCFDCF97BE46
:107F4000E89526C08437B1F42ED02DD0F82E2BD052
:107F50003CD0F601EF2C8F010F5F1F4F84911BD097
:107F6000EA94F801C1F70894C11CD11CFA94CF0C13
:107F7000D11C0EC0853739F428D08EE10CD085E9AC
:107F80000AD08FE07ACF813511F488E018D01DD067
:107F900080E101D065CF982F8091C00085FFFCCF94
:107FA0009093C60008958091C00087FFFCCF809118
:107FB000C00084FD01C0A8958091C6000895E0E648
:107FC000F0E098E1908380830895EDDF803219F02E
:107FD00088E0F5DFFFCF84E1DECF1F93182FE3DFCA
:107FE0001150E9F7F2DF1F91089580E0E8DFEE27F6
:047FF000FF270994CA
:027FFE00040479
:00000001FF
